{
  "contractName": "BloodDonation",
  "abi": [
    {
      "constant": true,
      "inputs": [],
      "name": "BloodcomponentType",
      "outputs": [
        {
          "name": "",
          "type": "uint8"
        }
      ],
      "payable": false,
      "stateMutability": "view",
      "type": "function",
      "signature": "0x66915266"
    },
    {
      "constant": true,
      "inputs": [],
      "name": "bloodbank",
      "outputs": [
        {
          "name": "",
          "type": "address"
        }
      ],
      "payable": false,
      "stateMutability": "view",
      "type": "function",
      "signature": "0xadd62d39"
    },
    {
      "constant": true,
      "inputs": [],
      "name": "Orderstate",
      "outputs": [
        {
          "name": "",
          "type": "uint8"
        }
      ],
      "payable": false,
      "stateMutability": "view",
      "type": "function",
      "signature": "0xdd8a6d47"
    },
    {
      "inputs": [],
      "payable": false,
      "stateMutability": "nonpayable",
      "type": "constructor",
      "signature": "constructor"
    },
    {
      "anonymous": false,
      "inputs": [
        {
          "indexed": true,
          "name": "doctor",
          "type": "address"
        },
        {
          "indexed": false,
          "name": "BloodcomponentType",
          "type": "uint256"
        },
        {
          "indexed": false,
          "name": "Amount",
          "type": "uint256"
        },
        {
          "indexed": true,
          "name": "Date",
          "type": "uint256"
        }
      ],
      "name": "RedcellsRequest",
      "type": "event",
      "signature": "0xd1ffd1a60f375ec126fb670bca2ff0f1d611b3747be225c6ffcb0fcf8a025665"
    },
    {
      "anonymous": false,
      "inputs": [
        {
          "indexed": true,
          "name": "doctor",
          "type": "address"
        },
        {
          "indexed": false,
          "name": "BloodcomponentType",
          "type": "uint256"
        },
        {
          "indexed": false,
          "name": "Amount",
          "type": "uint256"
        },
        {
          "indexed": true,
          "name": "Date",
          "type": "uint256"
        }
      ],
      "name": "WhiteCellsRequest",
      "type": "event",
      "signature": "0x21715c03ec1395fb3562bfb3c67f2a074c21baf13a5d06a8bb49a5d44f04ee9f"
    },
    {
      "anonymous": false,
      "inputs": [
        {
          "indexed": true,
          "name": "doctor",
          "type": "address"
        },
        {
          "indexed": false,
          "name": "BloodcomponentType",
          "type": "uint256"
        },
        {
          "indexed": false,
          "name": "Amount",
          "type": "uint256"
        },
        {
          "indexed": true,
          "name": "Date",
          "type": "uint256"
        }
      ],
      "name": "PlasmaRequest",
      "type": "event",
      "signature": "0x88913733170e8eea62908daa72c06ddd0ff281c0f2373fcced0a3126bec861ae"
    },
    {
      "anonymous": false,
      "inputs": [
        {
          "indexed": true,
          "name": "doctor",
          "type": "address"
        },
        {
          "indexed": false,
          "name": "BloodcomponentType",
          "type": "uint256"
        },
        {
          "indexed": false,
          "name": "Amount",
          "type": "uint256"
        },
        {
          "indexed": true,
          "name": "Date",
          "type": "uint256"
        }
      ],
      "name": "PlateletsRequest",
      "type": "event",
      "signature": "0x107c501810866f2cd6492df9d0308093c7b05fbc9840e41d1a8004c2422fced5"
    },
    {
      "anonymous": false,
      "inputs": [
        {
          "indexed": true,
          "name": "doctor",
          "type": "address"
        }
      ],
      "name": "BloodComponentUnitsOrderReceived",
      "type": "event",
      "signature": "0x78c17404308ab59dd9cbc2e3a780e98569819961fd4f4f1d709e75ec4e23bd50"
    },
    {
      "anonymous": false,
      "inputs": [
        {
          "indexed": true,
          "name": "doctor",
          "type": "address"
        },
        {
          "indexed": false,
          "name": "BloodcomponentType",
          "type": "uint256"
        },
        {
          "indexed": false,
          "name": "PatientID",
          "type": "uint256"
        },
        {
          "indexed": false,
          "name": "Amount",
          "type": "uint256"
        }
      ],
      "name": "DoctorRedcellsPrescription",
      "type": "event",
      "signature": "0x529c6bb6cc95ab8398bfc07edac540898423af5f1dc3886b425babef69f5395e"
    },
    {
      "anonymous": false,
      "inputs": [
        {
          "indexed": true,
          "name": "doctor",
          "type": "address"
        },
        {
          "indexed": false,
          "name": "BloodcomponentType",
          "type": "uint256"
        },
        {
          "indexed": false,
          "name": "PatientID",
          "type": "uint256"
        },
        {
          "indexed": false,
          "name": "Amount",
          "type": "uint256"
        }
      ],
      "name": "DoctorWhitecellsPrescription",
      "type": "event",
      "signature": "0x20d5a4390579f08281023617c6195b454db4bdd76a5653f9d221f96e6cc3fa63"
    },
    {
      "anonymous": false,
      "inputs": [
        {
          "indexed": true,
          "name": "doctor",
          "type": "address"
        },
        {
          "indexed": false,
          "name": "BloodcomponentType",
          "type": "uint256"
        },
        {
          "indexed": false,
          "name": "PatientID",
          "type": "uint256"
        },
        {
          "indexed": false,
          "name": "Amount",
          "type": "uint256"
        }
      ],
      "name": "DoctorplasmaPrescription",
      "type": "event",
      "signature": "0x197a3c1ed3381d99965d9dcbe7d6305e7c07006f9996cca2e3969153e728d235"
    },
    {
      "anonymous": false,
      "inputs": [
        {
          "indexed": true,
          "name": "doctor",
          "type": "address"
        },
        {
          "indexed": false,
          "name": "BloodcomponentType",
          "type": "uint256"
        },
        {
          "indexed": false,
          "name": "PatientID",
          "type": "uint256"
        },
        {
          "indexed": false,
          "name": "Amount",
          "type": "uint256"
        }
      ],
      "name": "DoctorplateletsPrescription",
      "type": "event",
      "signature": "0xc753993f97543a862693abbfcdf478b7cb142a4b0fae2c0fa14e5567c7a1ee60"
    },
    {
      "anonymous": false,
      "inputs": [
        {
          "indexed": true,
          "name": "doctor",
          "type": "address"
        },
        {
          "indexed": false,
          "name": "PatientID",
          "type": "uint256"
        },
        {
          "indexed": false,
          "name": "Date",
          "type": "uint256"
        }
      ],
      "name": "consumptionend",
      "type": "event",
      "signature": "0xea48348fb2302be7eab1c6aa7c155e406e5cb861e63c472ce4b2b96d64cc1d22"
    },
    {
      "anonymous": false,
      "inputs": [
        {
          "indexed": false,
          "name": "deployer",
          "type": "address"
        }
      ],
      "name": "consumptionAdress",
      "type": "event",
      "signature": "0x65b33fadae02c9b299cdca8c20237cb1ecc6aac130cd0c38c9a24c20182f43dc"
    },
    {
      "constant": false,
      "inputs": [
        {
          "name": "_BloodcomponentType",
          "type": "uint8"
        },
        {
          "name": "A",
          "type": "uint256"
        },
        {
          "name": "ReqDate",
          "type": "uint256"
        }
      ],
      "name": "BloodComponentRequested",
      "outputs": [],
      "payable": false,
      "stateMutability": "nonpayable",
      "type": "function",
      "signature": "0x5b850abb"
    },
    {
      "constant": false,
      "inputs": [
        {
          "name": "_BloodcomponentType",
          "type": "uint8"
        },
        {
          "name": "_ID",
          "type": "uint256"
        },
        {
          "name": "_A",
          "type": "uint256"
        }
      ],
      "name": "BloodUnitPrescription",
      "outputs": [],
      "payable": false,
      "stateMutability": "nonpayable",
      "type": "function",
      "signature": "0x4e9b58a6"
    },
    {
      "constant": false,
      "inputs": [
        {
          "name": "ID",
          "type": "uint256"
        },
        {
          "name": "OfDate",
          "type": "uint256"
        }
      ],
      "name": "BloodUnitTransfusion",
      "outputs": [],
      "payable": false,
      "stateMutability": "nonpayable",
      "type": "function",
      "signature": "0x6efa6bde"
    }
  ],
  "bytecode": "0x608060405234801561001057600080fd5b5060008054600160a060020a0319163390811790915560408051918252517f65b33fadae02c9b299cdca8c20237cb1ecc6aac130cd0c38c9a24c20182f43dc9181900360200190a16106c0806100676000396000f3fe6080604052600436106100775763ffffffff7c01000000000000000000000000000000000000000000000000000000006000350416634e9b58a6811461007c5780635b850abb146100b757806366915266146100f05780636efa6bde14610129578063add62d3914610159578063dd8a6d4714610197575b600080fd5b34801561008857600080fd5b506100b56004803603606081101561009f57600080fd5b5060ff81351690602081013590604001356101bc565b005b3480156100c357600080fd5b506100b5600480360360608110156100da57600080fd5b5060ff81351690602081013590604001356103ec565b3480156100fc57600080fd5b50610105610619565b6040518082600381111561011557fe5b60ff16815260200191505060405180910390f35b34801561013557600080fd5b506100b56004803603604081101561014c57600080fd5b5080359060200135610627565b34801561016557600080fd5b5061016e61066f565b6040805173ffffffffffffffffffffffffffffffffffffffff9092168252519081900360200190f35b3480156101a357600080fd5b506101ac61068b565b6040518082600281111561011557fe5b3360009081526004602052604090205460ff16151561026257604080517f08c379a000000000000000000000000000000000000000000000000000000000815260206004820152602f60248201527f596f7520646f206e6f7420686176652070726976696c6567657320746f20727560448201527f6e20746869732066756e6374696f6e0000000000000000000000000000000000606482015290519081900360840190fd5b60018290556002819055600083600381111561027a57fe5b14156102cc5760015460025460408051600081526020810193909352828101919091525133917f529c6bb6cc95ab8398bfc07edac540898423af5f1dc3886b425babef69f5395e919081900360600190a25b60018360038111156102da57fe5b14156103295760018054600254604080519384526020840192909252828201525133917f197a3c1ed3381d99965d9dcbe7d6305e7c07006f9996cca2e3969153e728d235919081900360600190a25b600283600381111561033757fe5b1415610387576001546002805460408051928352602083019390935281830152905133917f197a3c1ed3381d99965d9dcbe7d6305e7c07006f9996cca2e3969153e728d235919081900360600190a25b600383600381111561039557fe5b14156103e75760015460025460408051600381526020810193909352828101919091525133917fc753993f97543a862693abbfcdf478b7cb142a4b0fae2c0fa14e5567c7a1ee60919081900360600190a25b505050565b3360009081526004602052604090205460ff16151561049257604080517f08c379a000000000000000000000000000000000000000000000000000000000815260206004820152602f60248201527f596f7520646f206e6f7420686176652070726976696c6567657320746f20727560448201527f6e20746869732066756e6374696f6e0000000000000000000000000000000000606482015290519081900360840190fd5b6002829055600381905560008360038111156104aa57fe5b14156104f45760035460025460408051600081526020810192909252805133927fd1ffd1a60f375ec126fb670bca2ff0f1d611b3747be225c6ffcb0fcf8a02566592908290030190a35b600183600381111561050257fe5b141561054c5760035460025460408051600181526020810192909252805133927fd1ffd1a60f375ec126fb670bca2ff0f1d611b3747be225c6ffcb0fcf8a02566592908290030190a35b600283600381111561055a57fe5b14156105a45760035460028054604080519283526020830191909152805133927f88913733170e8eea62908daa72c06ddd0ff281c0f2373fcced0a3126bec861ae92908290030190a35b60038360038111156105b257fe5b14156103e7576003543373ffffffffffffffffffffffffffffffffffffffff167f107c501810866f2cd6492df9d0308093c7b05fbc9840e41d1a8004c2422fced56003600254604051808381526020018281526020019250505060405180910390a3505050565b600654610100900460ff1681565b600182905560038190556040805183815260208101839052815133927fea48348fb2302be7eab1c6aa7c155e406e5cb861e63c472ce4b2b96d64cc1d22928290030190a25050565b60005473ffffffffffffffffffffffffffffffffffffffff1681565b60065460ff168156fea165627a7a72305820b519118861dec7e21fc72f32cbd0b165d7e27831ead9fc65d0a74debf13e7d400029",
  "source": "pragma solidity ^0.5.0;\r\n\r\n\r\ncontract BloodDonation {\r\naddress public bloodbank;\r\nuint PatientID; \r\nuint Amount; \r\nuint Date;\r\nmapping(address => bool) doctor; // only authorized doctors are allowed\r\nmapping(address => bool) donor; // only registered donors are allowed\r\nenum OrderStatus {StartDelivery, Enroute, EndDelivery}\r\nOrderStatus public Orderstate;\r\nenum BloodComponentType {redcellstype, whitecellstype, plasmatype, plateletstype}\r\nBloodComponentType public BloodcomponentType;\r\n\r\n\r\nconstructor() public {\r\n    bloodbank = msg.sender;\r\n    emit consumptionAdress(msg.sender);\r\n}\r\n\r\n// Events \r\nevent RedcellsRequest (address indexed doctor, uint BloodcomponentType, uint Amount, uint indexed Date);\r\nevent WhiteCellsRequest (address indexed doctor, uint BloodcomponentType, uint Amount, uint indexed Date);\r\nevent PlasmaRequest (address indexed doctor,uint BloodcomponentType, uint Amount, uint indexed Date); \r\nevent PlateletsRequest (address indexed doctor, uint BloodcomponentType, uint Amount, uint indexed Date); \r\nevent BloodComponentUnitsOrderReceived (address indexed doctor);\r\nevent DoctorRedcellsPrescription(address indexed doctor,uint BloodcomponentType, uint PatientID, uint Amount);\r\nevent DoctorWhitecellsPrescription(address indexed doctor,uint BloodcomponentType, uint PatientID, uint Amount);\r\nevent DoctorplasmaPrescription(address indexed doctor, uint BloodcomponentType, uint PatientID, uint Amount);\r\nevent DoctorplateletsPrescription(address indexed doctor,uint BloodcomponentType, uint PatientID, uint Amount);\r\nevent consumptionend(address indexed doctor, uint PatientID, uint Date);\r\nevent consumptionAdress(address deployer);\r\n\r\n//Defining Modifiers \r\n\r\nmodifier onlybloodbank() {\r\n    require(bloodbank == msg.sender, \"You do not have privileges to run this function\");\r\n    _;\r\n}\r\n\r\nmodifier onlydonor() {\r\n    require(donor[msg.sender], \"You do not have privileges to run this function\");\r\n    _;\r\n}\r\n\r\nmodifier onlydoctor() {\r\n    require(doctor[msg.sender], \"You do not have privileges to run this function\");\r\n    _;\r\n}\r\n\r\n\r\n function BloodComponentRequested(BloodComponentType _BloodcomponentType, uint A, uint ReqDate) public onlydoctor{  \r\n\r\n     Amount = A; \r\n     Date=ReqDate; \r\n        if (_BloodcomponentType == BloodComponentType.redcellstype){\r\n        \r\n        emit RedcellsRequest(msg.sender, 0 ,Amount, Date);\r\n    }\r\n        if (_BloodcomponentType == BloodComponentType.whitecellstype){\r\n        \r\n        emit RedcellsRequest(msg.sender, 1 ,Amount, Date);\r\n    }\r\n        if (_BloodcomponentType == BloodComponentType.plasmatype){\r\n        \r\n         emit PlasmaRequest(msg.sender, 2 , Amount,  Date );\r\n    }\r\n        if (_BloodcomponentType == BloodComponentType.plateletstype) {\r\n        \r\n        emit PlateletsRequest(msg.sender, 3 ,  Amount , Date);\r\n    }\r\n   \r\n}\r\n    \r\n function BloodUnitPrescription(BloodComponentType _BloodcomponentType,uint _ID, uint _A) public onlydoctor{  \r\n    PatientID = _ID; \r\n    Amount= _A; \r\n        if (_BloodcomponentType == BloodComponentType.redcellstype){\r\n        \r\n        emit DoctorRedcellsPrescription(msg.sender, 0 , PatientID, Amount);\r\n    }\r\n        if (_BloodcomponentType == BloodComponentType.whitecellstype){\r\n        \r\n         emit DoctorplasmaPrescription(msg.sender, 1 , PatientID , Amount);\r\n    }\r\n        if (_BloodcomponentType == BloodComponentType.plasmatype){\r\n        \r\n         emit DoctorplasmaPrescription(msg.sender, 2 , PatientID , Amount);\r\n    }\r\n        if (_BloodcomponentType == BloodComponentType.plateletstype) {\r\n        \r\n        emit DoctorplateletsPrescription(msg.sender, 3 , PatientID , Amount);\r\n    }\r\n   \r\n}\r\n\r\nfunction BloodUnitTransfusion(uint ID, uint OfDate) public {\r\n        PatientID = ID;\r\n        Date = OfDate; \r\n        emit consumptionend(msg.sender, ID, Date);\r\n    }\r\n\r\n}",
  "sourcePath": "C:/Users/aryan/OneDrive/Desktop/projects/blood-management-blockchain/contracts/BloodDonation.sol",
  "compiler": {
    "name": "solc",
    "version": "0.5.0+commit.1d4f565a.Emscripten.clang"
  },
  "schemaVersion": "3.0.1",
  "updatedAt": "2022-04-17T01:39:49.764Z",
  "devdoc": {
    "methods": {}
  },
  "userdoc": {
    "methods": {}
  }
}